:100000000C9446000C9465000C9465000C946500FB
:100010000C9465000C9465000C9467000C946500CA
:100020000C9465000C9465000C9465000C946500BC
:100030000C9465000C9465000C9465000C946500AC
:100040000C9465000C9465000C9465000C9465009C
:100050000C9465000C9465000C9465000C9465008C
:100060000C9465000C9465000C9465000C9465007C
:100070000C9465000C9465000C9465000C9465006C
:100080000C9465000C9465000C94650011241FBE4F
:10009000CFEFD0E1DEBFCDBF12E0A0E0B1E0EAE9F2
:1000A000FEE000E00BBF02C007900D92A03CB1073C
:1000B000D9F712E0A0ECB2E001C01D92A63CB10756
:1000C000E1F70E94C0000C944B070C9400001F92B3
:1000D0000F920FB60F9211248F938091C5028F5FFC
:1000E0008093C50287FF07C01092C5028091C402A9
:1000F0008F5F8093C40281E08093C00280E288BF5A
:100100008F910F900FBE0F901F90189561111BC01B
:10011000883064F095B3885021E030E0082E01C0AB
:10012000220F0A94EAF7922B95BB0895883038F590
:100130009BB321E030E0082E01C0220F0A94EAF7B9
:10014000922B9BBB0895883074F090916200885088
:1001500021E030E0082E01C0220F0A94EAF7922B2A
:10016000909362000895883050F492B321E030E01B
:10017000082E01C0220F0A94EAF7922B92BB089531
:10018000CF93DF93CDB7DEB760970FB6F894DEBF9D
:100190000FBECDBF10926A0084E08ABF80E289BFA3
:1001A00088BF78948FEF8ABB84BB81BB809361004A
:1001B0008CE182B91C9A512C412C66246394712CD9
:1001C000E0E0F0E004EF11E08091C0028823E1F369
:1001D0001092C0021A9ACF01B8010E94230787E04B
:1001E000A82EB12CA61AB70AB501F12C1BBA12BA67
:1001F00015BA10926200BDE0BB2EFB1451F01B9AA1
:1002000083B1837F83B9F394A0E1CA2EFC10EECFB3
:1002100066C020E030E070E4D72ED20EA091C50277
:10022000A21329C040E050E0E12CB0E0AA55BE4F37
:100230008C9190E0042E02C0959587950A94E2F780
:1002400080FF0BC087E090E0841B950B530102C038
:10025000AA0CBB1C8A95E2F7EA284F5F5F4F483033
:10026000510531F78E2D90E0062E02C095958795A9
:100270000A94E2F78BBB8091C5028D1129C040E042
:1002800050E0E12CD901AA55BE4F8C9190E0042E8C
:1002900002C0959587950A94E2F780FF0BC087E02E
:1002A00090E0841B950B630102C0CC0CDD1C8A9589
:1002B000E2F7EC284F5F5F4F4830510531F78E2D44
:1002C00090E0062E02C0959587950A94E2F782BBCE
:1002D0002F5F3F4F2C31310509F09DCF90CF3196E4
:1002E000E03A2FE0F20709F06FCF4AE952E3A0E0CD
:1002F00012E38091C0028823E1F31092C0021A9A9F
:10030000B0E01BBA12BA15BA10926200BD3041F0CB
:100310001B9A83B1837F83B9BF5FB03191F75EC011
:1003200080E090E02A2F280F27FF02C02F57FCCF34
:1003300000E4020F07FF02C001EC020F3091C5027A
:10034000321321C020E030E0F12CFC01EA55FE4FD1
:10035000608170E0022E02C0759567950A94E2F7FD
:1003600060FF0BC067E070E0621B730B530102C0BB
:10037000AA0CBB1C6A95E2F7FA282F5F3F4F283082
:10038000310531F7FBBA2091C502201321C020E0CE
:1003900030E000E0FC01EA55FE4F608170E0022E83
:1003A00002C0759567950A94E2F760FF0BC067E09D
:1003B00070E0621B730B630102C0CC0CDD1C6A95FC
:1003C000E2F70C292F5F3F4F2830310531F702BB90
:1003D00001968C31910509F0A5CF9ACF8091040147
:1003E000815087FD03C08093040105C01093040170
:1003F000AF5FA7FDA0E0415051094115510509F03B
:1004000078CFE0E0F0E004EF11E08091C0028823B3
:10041000E1F31092C0021A9ACF01B8010E9423079B
:1004200070E01BBA12BA15BA109262007D3041F02A
:100430001B9A83B1837F83B97F5F703191F766C068
:1004400020E030E050E4E52EE20EA091C502A213B8
:1004500029C040E050E0F12CB0E0AA55BE4F8C918D
:1004600090E0042E02C0959587950A94E2F780FFEC
:100470000BC087E090E0841B950B530102C0AA0CCF
:10048000BB1C8A95E2F7FA284F5F5F4F4830510551
:1004900031F78F2D90E0062E02C0959587950A942E
:1004A000E2F78BBB8091C5028E1129C040E050E07D
:1004B000F12CD901AA55BE4F8C9190E0042E02C0B8
:1004C000959587950A94E2F780FF0BC087E090E04E
:1004D000841B950B630102C0CC0CDD1C8A95E2F7EE
:1004E000FC284F5F5F4F4830510531F78F2D90E06A
:1004F000062E02C0959587950A94E2F782BB2F5F7E
:100500003F4F2C31310509F09DCF92CF3196E03A23
:100510002FE0F20709F079CFE0E0F0E004EF11E01E
:100520008091C0028823E1F31092C0021A9ACF0191
:10053000B8010E94230787E090E0861B970BBC015F
:10054000F12C1BBA12BA15BA109262009DE0F9168E
:1005500049F01B9A83B1837F83B9F394A0E1FA1227
:10056000F0CF66C020E030E040E4D42ED20EA0915F
:10057000C502A21329C040E050E0E12CB0E0A25A2D
:10058000BE4F8C9190E0042E02C0959587950A94F9
:10059000E2F780FF0BC087E090E0841B950B5301CE
:1005A00002C0AA0CBB1C8A95E2F7EA284F5F5F4F96
:1005B0004830510531F78E2D90E0062E02C09595FA
:1005C00087950A94E2F78BBB8091C5028D1129C0F3
:1005D00040E050E0E12CD901A25ABE4F8C9190E04E
:1005E000042E02C0959587950A94E2F780FF0BC010
:1005F00087E090E0841B950B630102C0CC0CDD1CEE
:100600008A95E2F7EC284F5F5F4F4830510531F78C
:100610008E2D90E0062E02C0959587950A94E2F7FC
:1006200082BB2F5F3F4F2A31310509F09DCF91CF1B
:100630003196E03A2FE0F20709F072CF4AE952E32F
:10064000A0E012E38091C0028823E1F31092C0027F
:100650001A9AB0E01BBA12BA15BA10926200BD30F5
:1006600041F01B9A83B1837F83B9BF5FB03191F7AB
:100670005EC080E090E02A2F280F27FF02C02F578E
:10068000FCCF00E4020F07FF02C001EC020F309123
:10069000C502321321C020E030E0F12CFC01E25A07
:1006A000FE4F608170E0022E02C0759567950A9436
:1006B000E2F760FF0BC067E070E0621B730B530151
:1006C00002C0AA0CBB1C6A95E2F7FA282F5F3F4FC5
:1006D0002830310531F7FBBA2091C502201321C023
:1006E00020E030E000E0FC01E25AFE4F608170E063
:1006F000022E02C0759567950A94E2F760FF0BC061
:1007000067E070E0621B730B630102C0CC0CDD1C60
:100710006A95E2F70C292F5F3F4F2830310531F7FA
:1007200002BB01968A31910509F0A5CF9ACF80913D
:100730000301815087FD03C08093030105C010931E
:100740000301AF5FA7FDA0E04150510941155105DC
:1007500009F078CFE0E0F0E004EF11E08091C00212
:100760008823E1F31092C0021A9ACF01B8010E94C7
:10077000230770E01BBA12BA15BA109262007D30DE
:1007800041F01B9A83B1837F83B97F5F703191F70A
:1007900066C020E030E090E4E92EE20EA091C502B0
:1007A000A21329C040E050E0F12CB0E0A25ABE4FA5
:1007B0008C9190E0042E02C0959587950A94E2F7FB
:1007C00080FF0BC087E090E0841B950B530102C0B3
:1007D000AA0CBB1C8A95E2F7FA284F5F5F4F48309E
:1007E000510531F78F2D90E0062E02C09595879523
:1007F0000A94E2F78BBB8091C5028E1129C040E0BC
:1008000050E0F12CD901A25ABE4F8C9190E0042EF9
:1008100002C0959587950A94E2F780FF0BC087E0A8
:1008200090E0841B950B630102C0CC0CDD1C8A9503
:10083000E2F7FC284F5F5F4F4830510531F78F2DAD
:1008400090E0062E02C0959587950A94E2F782BB48
:100850002F5F3F4F2A31310509F09DCF92CF31965E
:10086000E03A2FE0F20709F079CF08E91AE3809126
:10087000C0028823E1F31092C0021A9AF12C1BBA2D
:1008800012BA15BA1092620033E03F1508F462C044
:100890008091C5028C3021F08091C5028C3411F416
:1008A000D99A919A8091C5028C3121F08091C5022C
:1008B0008C3511F4DB9A939A8091C5028C3221F029
:1008C0008091C5028C3611F4DD9A959A8091C5020B
:1008D0008C3321F08091C5028C3711F4DF9A979AFE
:1008E0008091C5028C3421F08091C5028C3031F4A6
:1008F000A99A809162008260809362008091C50213
:100900008A3521F08091C5028A3131F4AB9A809109
:1009100062008860809362008091C5028A3621F06F
:100920008091C5028A3231F4AD9A80916200806272
:10093000809362008091C5028A3729F08091C502B8
:100940008A3309F042C0AF9A809162008068809338
:1009500062003BC064E0F61238C08091C50260E0DE
:100960008695869586950E9486008091C50286951B
:100970008695869561E0885F0E9486008091C50219
:1009800061E08695869586950E9486008091C502D5
:1009900086958695869560E0885F0E9486008091A6
:1009A000C502883090F08091C5028695869586951F
:1009B00061E088500E9486008091C50286958695E8
:1009C000869560E088500E9486001B9A83B1837FE1
:1009D00083B9F39470E1F71252CF01501109011558
:1009E000110509F044CF88E9E82E8AE3F82E8091BA
:1009F000C0028823E1F31092C0021A9A00E010E0CE
:100A00001BBA12BA15BA109262009091C40280917A
:100A1000C502F801E90FF11DE80FF11DEF70FF2786
:100A2000E055FD4F60E080810E9486009091C402F5
:100A30008091C502F801E90FF11DE80FF11DEF707B
:100A4000FF27E055FD4F61E080810E9486001B9AE0
:100A500083B1837F83B90F5F1F4F0031110581F68A
:100A600081E0E81AF108E114F10409F6B8E9CB2EA7
:100A7000BAE3DB2EAA24AA94B12C332433940FE7D3
:100A8000802E912C8091C0028823E1F31092C00245
:100A90001A9A2091C302809101019091020101975D
:100AA00090930201809301012223C1F018161906C8
:100AB0006CF0B0920201A0920101809100018F5F61
:100AC000809300018C3010F01092C302A4EFEA2E44
:100AD000A1E0FA2E0AEF11E040E033C01816190623
:100AE000ACF3B0920201A09201018091000181500B
:100AF00080930001833050F73092C302E7CF90918A
:100B0000C2029F779093C2028091C502891761F15A
:100B10002091C50230E0892F90E0805C9F4FB401A6
:100B20000E9437072817390759F11B9A83B1837F31
:100B300083B94F5FFFEFEF1AFF0A0F5F1F4F40317E
:100B400049F11BBA12BA15BA109262004630B8F6D3
:100B5000D7018C918BBBF801808185BB8C9182BBC6
:100B6000808180936200CBCF483091F660E0809125
:100B700000014C879B870E9486009B854C85C8CFCF
:100B8000483099F661E0809100014C870E94860010
:100B90004C85CBCF8091C5028F3729F48091C2025A
:100BA0008D5F8093C20221E0C21AD108C114D10422
:100BB00009F068CF68E97AE37E876D870FEF71E807
:100BC000F72EE0E6AE2EB12CF0E48F2E912C409162
:100BD000C5028091C102480F4F778091C0028823DF
:100BE000E1F31092C0021A9A10E0842F90E050EFC7
:100BF000540F30EEE32EE40E70ED740F7983A0EC09
:100C0000A40FAA83B0EBB40FBB83E0EAE40FEC833C
:100C100060E8C62ED12CC81AD90A960120563D4F3D
:100C2000388B2F87FC01E056FD4FBF0160567109DC
:100C30007E836D836501C81AD90AD601A056BD4FBF
:100C40006D019F012054310938872F83B401681B3F
:100C5000790B60567D4FDF019097BA87A98720E214
:100C600030E0281B390BC90180569D4F1BBA12BAC0
:100C700015BA10926200403110F4308023C0503118
:100C800010F4DC011EC0BFE0BE1518F0A985BA85BE
:100C900018C0B981B03110F4DB0113C0BA81B03192
:100CA00018F4AF81B8850DC0BB81B03110F4D60106
:100CB00008C0BC81B03118F4AD81BE8102C0AF85DF
:100CC000B8893C90131518F4FBBAF2BA07C0131197
:100CD00003C00BBB02BB02C01BBA15BA1B9A33B0D0
:100CE000B32DB37FB3B91F5F103109F0BFCF80912F
:100CF000C5028F3729F48091C1028D5F8093C102B4
:100D0000ED85FE853197FE87ED87EF2B09F05FCFEC
:100D100088E9E82E8AE3F82E9AE0C92ED12C26EF36
:100D2000A22EBB24BA948091C0028823E1F31092D2
:100D3000C0021A9A00E010E01BBA12BA15BA10925B
:100D400062008091C502E091C502EF73F0E0E05CC3
:100D5000FD4F2081803418F5209FC001219F900D08
:100D60001124B6010E943707FB01EB5FFE4F60E0E4
:100D700080810E948600E091C502EF73F0E0E05CA4
:100D8000FD4F2081209FC001219F900D1124B501AE
:100D90000E943707FB01EB5FFE4F61E022C0209FFE
:100DA000C001219F900D1124B6010E943707FB015D
:100DB000EB5FFE4F61E080810E948600E091C502FA
:100DC000EF73F0E0E05CFD4F2081209FC001219F88
:100DD000900D1124B5010E943707FB01EB5FFE4F18
:100DE00060E0878D0E9486008091C502811118C045
:100DF000411016C05394F5E0F51598F48091050163
:100E0000E6E0F1E0A5E0B1E091919D9321E0E532CB
:100E1000F207D1F780932401512C4424439401C05C
:100E2000412C1B9A83B1837F83B90F5F1F4F003121
:100E3000110509F081CF31E0E31AF108E114F10462
:100E400009F071CFBDC9AA1BBB1B51E107C0AA1F86
:100E5000BB1FA617B70710F0A61BB70B881F991F5B
:100E60005A95A9F780959095BC01CD01089597FBFF
:100E7000072E16F4009407D077FD09D00E942307AF
:100E800007FC05D03EF4909581959F4F089570958D
:0A0E900061957F4F0895F894FFCF9D
:100E9A000C630132320C0C0B0B0A0A090908080709
:100EAA000706060505050506060707080809090ACB
:100EBA000A0B0B0C0C91915252523C00010101FF9A
:100ECA0001010100FF01010101FF00010101FF0110
:100EDA000101FF2121120C00C0301C13131C30C069
:100EEA0000FF01010101FF003C66C38181811C22D0
:100EFA0022FF22221C009191915252341800C030D4
:100F0A001C141313141C30C0FF18244281003C66C1
:100F1A00C38181008081422418080402013C66C30F
:100F2A00818100C060181613131C30C000808142F2
:100F3A0024180804020180807E010101FF009191BA
:100F4A0052341800010101FF01010100FF6020185D
:100F5A000CFFC8380C0300F01010FF00FF182442E1
:100F6A008100030C38C8C8380C03FF808080FF005A
:100F7A00030C38C8C8380C0300FF808080FF0003C8
:100F8A000C1868C80404080830C0202010100C038C
:100F9A000A0A0A0A0A0909090908080707060605C2
:100FAA000505040403030202010101010000000017
:100FBA000000000001010101020203030404050507
:100FCA0005060607070808090909090A0A0A0A0A92
:100FDA0000000000010101010202030304040505E7
:100FEA0005060607070808090909090A0A0A0A0A72
:100FFA000A0A0A0A0A090909090808070706060562
:10100A0005050404030302020101010100000000B6
:10101A000C0C0B0B0A0A090908080707060605053E
:10102A00050506060707080809090A0A0B0B0C0C2E
:10103A000A0A0A0A0A0A0A0B0B0B0B0C0C0C0D0DF6
:10104A0005060708090A0B0C0C0B0A09080706050E
:00000001FF
