:100000000C9446000C9465000C9465000C946500FB
:100010000C9465000C9465000C949A000C94650097
:100020000C9467000C9465000C9465000C946500BA
:100030000C9465000C9465000C9465000C946500AC
:100040000C9465000C9465000C9465000C9465009C
:100050000C9465000C9465000C9465000C9465008C
:100060000C9465000C9465000C9465000C9465007C
:100070000C9465000C9465000C9465000C9465006C
:100080000C9465000C9465000C94650011241FBE4F
:10009000CFEFD0E1DEBFCDBF11E0A0E0B1E0ECE6F4
:1000A000F7E000E00BBF02C007900D92A630B10749
:1000B000D9F711E0A6E0B1E001C01D92AF36B1075B
:1000C000E1F70E942B030C94B4030C9400001F92E0
:1000D0000F920FB60F9211240BB60F922F933F93EE
:1000E0004F935F936F937F938F939F93AF93BF9340
:1000F000EF93FF9320E540E050E061E680E00E944E
:10010000040190936C0180936B010E94FE02FF91A9
:10011000EF91BF91AF919F918F917F916F915F917F
:100120004F913F912F910F900BBE0F900FBE0F90EC
:100130001F9018951F920F920FB60F9211248F9354
:1001400080916E018F5F80936E0187FF07C01092D0
:100150006E0180916D018F5F80936D0181E08093CE
:10016000060180E288BF8F910F900FBE0F901F9005
:10017000189561111BC0883064F095B3885021E058
:1001800030E0082E01C0220F0A94EAF7922B95BBAB
:100190000895883038F59BB321E030E0082E01C087
:1001A000220F0A94EAF7922B9BBB0895883074F0D3
:1001B00090916200885021E030E0082E01C0220FAB
:1001C0000A94EAF7922B909362000895883050F4D5
:1001D00092B321E030E0082E01C0220F0A94EAF722
:1001E000922B92BB089587B3876087BB81E58DB959
:1001F00008958FB9779BFECF8FB10895BC9A0E9466
:10020000F300C09AC49808958F929F92BF92CF92A4
:10021000DF92EF92FF920F931F93CF93DF9300D063
:10022000CDB7DEB7C82ED62EB22E81E0C81203C0DD
:10023000E62FE062DE2EF0EAFA95F1F7C09880EA48
:100240008A95F1F78D2D49835A830E94F900E0EADF
:10025000EA95F1F787E0E82E81E0F82E4981842EB7
:100260005A81952E8701802F8E198B15C0F4C110ED
:1002700009C0F0EADF1631F08FEF0E94F900F801B3
:10028000808304C0F40180810E94F900F0EAFA95AD
:10029000F1F70F5F1F4F8FEF881A980AE4CFC09ACB
:1002A00087E091E00F900F90DF91CF911F910F9118
:1002B000FF90EF90DF90CF90BF909F908F90089528
:1002C000DF92EF92FF920F931F93CF93DF931F92D2
:1002D000CDB7DEB78C01F62ED42E0E94FE008FE93A
:1002E0009FE00197F1F700C00000198221E0AE0104
:1002F0004F5F5F4F61E081E00E940401EE24E394D0
:10030000E98221E0AE014F5F5F4F62E081E00E9431
:10031000040194E0F91641F085E0F81639F093E015
:10032000F91206C0E98204C082E001C083E089833B
:1003300021E0AE014F5F5F4F63E081E00E94040166
:1003400080E2898321E0AE014F5F5F4F65E081E08D
:100350000E94040187E0898321E0AE014F5F5F4F77
:1003600066E081E00E9404012F2DA8016AE081E08F
:100370000E9404012F2DA80160E181E00E94040188
:10038000D98221E0AE014F5F5F4F61E181E00E94C1
:1003900004018AE1898321E0AE014F5F5F4F60E095
:1003A00081E00E9404018FE99FE00197F1F700C00E
:1003B00000000F90DF91CF911F910F91FF90EF9070
:1003C000DF900895DF92EF92FF920F931F93CF93E8
:1003D000DF931F92CDB7DEB78C01F62ED42E0E948C
:1003E000FE008FE99FE00197F1F700C0000019823D
:1003F00021E0AE014F5F5F4F61E081E00E940401A8
:10040000EE24E394E98221E0AE014F5F5F4F62E0AA
:1004100081E00E94040194E0F91641F085E0F816AD
:1004200039F093E0F91206C0E98204C082E001C00D
:1004300083E0898321E0AE014F5F5F4F63E081E09D
:100440000E94040180E2898321E0AE014F5F5F4F8B
:1004500065E081E00E94040187E0898321E0AE012C
:100460004F5F5F4F66E081E00E9404012F2DA801DD
:100470006AE081E00E9404012F2DA80160E181E083
:100480000E940401D98221E0AE014F5F5F4F61E11C
:1004900081E00E9404018BE1898321E0AE014F5F7E
:1004A0005F4F60E081E00E9404018FE99FE00197C7
:1004B000F1F700C000000F90DF91CF911F910F91D5
:1004C000FF90EF90DF9008951F93CF93DF93EC019F
:1004D000162F20E0AC0161EE80E00E940401212F84
:1004E000AE0160EA80E00E9404018FE39CE901977D
:1004F000F1F700C00000C49A90EA9A95F1F7C49809
:100500008FE39CE90197F1F700C00000DF91CF91E4
:100510001F910895FF920F931F93CF93DF931F9224
:10052000CDB7DEB78C01F62E84E0681741F085E088
:10053000681739F083E0681306C081E003C082E0E9
:1005400001C083E0898321E0AE014F5F5F4F63E02C
:1005500081E00E9404012F2DA8016AE081E00E9441
:1005600004012F2DA80160E181E00E9404010F9099
:10057000DF91CF911F910F91FF900895FF920F93FC
:100580001F93CF93DF931F92CDB7DEB78C01F62E6A
:10059000198221E0AE014F5F5F4F60E081E00E9471
:1005A00004018FE59DE60197F1F700C000002F2DB3
:1005B000A8016AE081E00E9404012F2DA80160E1FA
:1005C00081E00E9404018AE1898321E0AE014F5F4E
:1005D0005F4F60E081E00E9404018FE59DE6019796
:1005E000F1F700C000000F90DF91CF911F910F91A4
:1005F000FF900895C49A0895C498089580EA8A9552
:10060000F1F7C09880EA8A95F1F787E20E94F90035
:1006100080EA8A95F1F780E70E94F90080EA8A95DE
:10062000F1F7C09A089595E39A95F1F70000C09804
:1006300095E39A95F1F700000E94F90085E38A9509
:10064000F1F700008FEF0E94F90095E39A95F1F71A
:100650000000C09A089584E88ABF80EA89BF88BFF5
:1006600078948FEF8ABB84BB81BB809361008CE15F
:1006700082B91C9A40E565E080E091E00E94E201C9
:100680000E94FA02809106018823E1F3109206018C
:100690001A9AC0E0D0E01BBA12BA15BA10926200E2
:1006A00000E010E020916E01E0916B01F0916C018F
:1006B000E00FF11F6081862F8F7790E040916E01EF
:1006C00050E084179507D1F4661F6627661F818165
:1006D000282F2F70220F262B220F220F220F259555
:1006E00025952595332727FD30952C173D0739F1A2
:1006F000209530952C173D0739F51AC0205C2F77CF
:1007000030E08217930701F5661F6627661F818117
:10071000282F2F70220F262B220F220F220F259514
:1007200025952595332727FD30952C173D0711F486
:1007300061E006C0209530952C173D0729F460E054
:1007400082958F700E94B9000E5F1F4F0035110512
:1007500009F0A8CF1B9A83B1837F83B92196C0315A
:0C076000D10509F098CF8ECFF894FFCFA0
:06076C001112121212002E
:00000001FF
