:100000000C9446000C9465000C9465000C946500FB
:100010000C9465000C9465000C949C000C94650095
:100020000C9467000C9465000C9465000C946500BA
:100030000C9465000C9465000C9465000C946500AC
:100040000C9465000C9465000C9465000C9465009C
:100050000C9465000C9465000C9465000C9465008C
:100060000C9465000C9465000C9465000C9465007C
:100070000C9465000C9465000C9465000C9465006C
:100080000C9465000C9465000C94650011241FBE4F
:10009000CFEFD0E1DEBFCDBF11E0A0E0B1E0E0ECFA
:1000A000F7E000E00BBF02C007900D92A630B10749
:1000B000D9F711E0A6E0B1E001C01D92AD30B10763
:1000C000E1F70E944F030C94DE030C9400001F9292
:1000D0000F920FB60F9211240BB60F920F931F932E
:1000E0002F933F934F935F936F937F938F939F9340
:1000F000AF93BF93EF93FF9307E011E024E040E05C
:1001000050E061E680E00E9406010E942203FF9118
:10011000EF91BF91AF919F918F917F916F915F917F
:100120004F913F912F911F910F910F900BBE0F9008
:100130000FBE0F901F9018951F920F920FB60F923F
:1001400011248F9380910C018F5F80930C0187FFA6
:1001500007C010920C0180910B018F5F80930B01FF
:1001600081E08093060180E288BF8F910F900FBEDF
:100170000F901F90189561111BC0883064F095B3E3
:10018000885021E030E0082E01C0220F0A94EAF7DF
:10019000922B95BB0895883038F59BB321E030E071
:1001A000082E01C0220F0A94EAF7922B9BBB0895F8
:1001B000883074F090916200885021E030E0082E81
:1001C00001C0220F0A94EAF7922B909362000895DF
:1001D000883050F492B321E030E0082E01C0220FA5
:1001E0000A94EAF7922B92BB089587B3866187BB86
:1001F00081E58DB908958FB9779BFECF8FB10895B2
:10020000B89A0E94F500C49AC09808958F929F9260
:10021000AF92BF92CF92DF92EF92FF920F931F9314
:10022000CF93DF9300D0CDB7DEB7C82ED62EB22E37
:1002300081E0C81203C0E62FE062DE2EF0EAFA95F4
:10024000F1F7C49880EA8A95F1F78D2D49835A8396
:100250000E94FB00E0EAEA95F1F7A02E4981E42E26
:100260005A81F52E4801882D8A198B15C8F4C110C2
:1002700009C0F0EADF1631F08FEF0E94FB00F401B5
:10028000808304C0F70180810E94FB00F0EAFA95A8
:10029000F1F78FEF881A980AEFEFEE1AFE0AE3CF14
:1002A000C49A0F900F90DF91CF911F910F91FF9003
:1002B000EF90DF90CF90BF90AF909F908F90089578
:1002C000BF92CF92DF92EF92FF920F931F93CF9343
:1002D000DF931F92CDB7DEB77C01D62EB42E0E94DD
:1002E00000018FE99FE00197F1F700C0000019823B
:1002F00000E010E021E0AE014F5F5F4F61E081E080
:100300000E940601CC24C394C98221E0AE014F5F54
:100310005F4F62E081E00E94060194E0D91641F04F
:1003200085E0D81639F093E0D91206C0C98204C01E
:1003300082E001C083E0898300E010E021E0AE01AB
:100340004F5F5F4F63E081E00E94060180E2898396
:1003500021E0AE014F5F5F4F65E081E00E94060142
:1003600087E0898321E0AE014F5F5F4F66E081E067
:100370000E9406012D2DA7016AE081E00E9406017E
:100380002D2DA70160E181E00E940601B98221E0E4
:10039000AE014F5F5F4F61E181E00E9406018AE19B
:1003A000898321E0AE014F5F5F4F60E081E00E94F2
:1003B00006018FE99FE00197F1F700C000000F9060
:1003C000DF91CF911F910F91FF90EF90DF90CF9031
:1003D000BF900895BF92CF92DF92EF92FF920F935A
:1003E0001F93CF93DF931F92CDB7DEB77C01D62E3C
:1003F000B42E0E9400018FE99FE00197F1F700C041
:100400000000198200E010E021E0AE014F5F5F4F75
:1004100061E081E00E940601CC24C394C98221E0FE
:10042000AE014F5F5F4F62E081E00E94060194E001
:10043000D91641F085E0D81639F093E0D91206C0FC
:10044000C98204C082E001C083E0898300E010E03B
:1004500021E0AE014F5F5F4F63E081E00E94060143
:1004600080E2898321E0AE014F5F5F4F65E081E06C
:100470000E94060187E0898321E0AE014F5F5F4F54
:1004800066E081E00E9406012D2DA7016AE081E06F
:100490000E9406012D2DA70160E181E00E94060166
:1004A000B98221E0AE014F5F5F4F61E181E00E94C0
:1004B00006018BE1898321E0AE014F5F5F4F60E071
:1004C00081E00E9406018FE99FE00197F1F700C0EB
:1004D00000000F90DF91CF911F910F91FF90EF904F
:1004E000DF90CF90BF900895FF920F931F93CF930B
:1004F000DF93EC01F62E00E010E020E0AC0161EEAD
:1005000080E00E9406012F2DAE0160EA80E00E948B
:1005100006018FE39CE90197F1F700C00000C09A43
:1005200090EA9A95F1F7C0988FE39CE90197F1F76B
:1005300000C00000DF91CF911F910F91FF900895AF
:10054000DF92EF92FF920F931F93CF93DF931F924F
:10055000CDB7DEB77C01D62E84E0681741F085E088
:10056000681739F083E0681306C081E003C082E0B9
:1005700001C083E0898300E010E021E0AE014F5F1D
:100580005F4F63E081E00E9406012D2DA7016AE024
:1005900081E00E9406012D2DA70160E181E00E940B
:1005A00006010F90DF91CF911F910F91FF90EF9077
:1005B000DF900895DF92EF92FF920F931F93CF93F6
:1005C000DF931F92CDB7DEB77C01D62E198200E0F3
:1005D00010E021E0AE014F5F5F4F60E081E00E94DC
:1005E00006018FE59DE60197F1F700C0000000E0ED
:1005F00010E02D2DA7016AE081E00E9406012D2D5B
:10060000A70160E181E00E9406018AE1898321E07F
:10061000AE014F5F5F4F60E081E00E9406018FE511
:100620009DE60197F1F700C000000F90DF91CF9198
:100630001F910F91FF90EF90DF900895C09A089559
:10064000C098089580EA8A95F1F7C49880EA8A955F
:10065000F1F787E20E94FB0080EA8A95F1F780E7D4
:100660000E94FB0080EA8A95F1F7C49A089595E309
:100670009A95F1F70000C49895E39A95F1F7000078
:100680000E94FB0085E38A95F1F700008FEF0E943E
:10069000FB0095E39A95F1F70000C49A089584E869
:1006A0008ABF80EA89BF88BF78948FEF8ABB84BBFA
:1006B00081BB809361008CE182B91C9A44E065E0C3
:1006C00080E091E00E94EA010E941E0380910601F1
:1006D0008823E1F3109206011A9AC0E0D0E01BBA19
:1006E00012BA15BA1092620000E010E040910C01BD
:1006F000C801880F991FFC01E95FFE4FA0812A2FD6
:100700002F7730E060910C0170E026173707C9F4AD
:10071000AA1FAA27AA1F21812F70220F2A2B220F7E
:10072000220F220F259525952595332727FD3095F6
:100730002C173D0751F1209530952C173D0771F589
:1007400019C0405C4F7750E02417350739F5AA1FD0
:10075000AA27AA1F21812F70220F2A2B220F220FD6
:10076000220F259525952595332727FD30952C17A4
:100770003D0731F4FC01E85FFE4F808161E00AC073
:10078000209530952C173D0749F4FC01E85FFE4F9A
:10079000808160E082958F700E94BB000F5F1F4FC9
:1007A0000230110509F0A2CF1B9A83B1837F83B970
:1007B0002196C031D10509F092CF88CFF894FFCFB0
:0607C000111212121200DA
:00000001FF
